{
  "contractName": "Car",
  "abi": [
    {
      "inputs": [
        {
          "internalType": "string",
          "name": "_name",
          "type": "string"
        },
        {
          "internalType": "enum CATEGORIES",
          "name": "_category",
          "type": "uint8"
        },
        {
          "internalType": "uint256",
          "name": "_price",
          "type": "uint256"
        },
        {
          "internalType": "string",
          "name": "_description",
          "type": "string"
        },
        {
          "internalType": "address payable",
          "name": "_dealer",
          "type": "address"
        }
      ],
      "stateMutability": "nonpayable",
      "type": "constructor"
    },
    {
      "inputs": [],
      "name": "carCount",
      "outputs": [
        {
          "internalType": "uint256",
          "name": "",
          "type": "uint256"
        }
      ],
      "stateMutability": "view",
      "type": "function"
    },
    {
      "inputs": [
        {
          "internalType": "uint256",
          "name": "",
          "type": "uint256"
        }
      ],
      "name": "carTokenIds",
      "outputs": [
        {
          "internalType": "uint256",
          "name": "",
          "type": "uint256"
        }
      ],
      "stateMutability": "view",
      "type": "function"
    },
    {
      "inputs": [],
      "name": "category",
      "outputs": [
        {
          "internalType": "enum CATEGORIES",
          "name": "",
          "type": "uint8"
        }
      ],
      "stateMutability": "view",
      "type": "function"
    },
    {
      "inputs": [],
      "name": "dealer",
      "outputs": [
        {
          "internalType": "address payable",
          "name": "",
          "type": "address"
        }
      ],
      "stateMutability": "view",
      "type": "function"
    },
    {
      "inputs": [],
      "name": "description",
      "outputs": [
        {
          "internalType": "string",
          "name": "",
          "type": "string"
        }
      ],
      "stateMutability": "view",
      "type": "function"
    },
    {
      "inputs": [],
      "name": "name",
      "outputs": [
        {
          "internalType": "string",
          "name": "",
          "type": "string"
        }
      ],
      "stateMutability": "view",
      "type": "function"
    },
    {
      "inputs": [],
      "name": "price",
      "outputs": [
        {
          "internalType": "uint256",
          "name": "",
          "type": "uint256"
        }
      ],
      "stateMutability": "view",
      "type": "function"
    },
    {
      "inputs": [],
      "name": "quantitySold",
      "outputs": [
        {
          "internalType": "uint256",
          "name": "",
          "type": "uint256"
        }
      ],
      "stateMutability": "view",
      "type": "function"
    },
    {
      "inputs": [
        {
          "internalType": "uint256",
          "name": "_tokenId",
          "type": "uint256"
        }
      ],
      "name": "addcarTokenId",
      "outputs": [],
      "stateMutability": "nonpayable",
      "type": "function"
    },
    {
      "inputs": [],
      "name": "incrementQuantitySold",
      "outputs": [],
      "stateMutability": "nonpayable",
      "type": "function"
    }
  ],
  "bytecode": "0x60806040523480156200001157600080fd5b5060405162000c5038038062000c50833981810160405281019062000037919062000406565b84600190805190602001906200004f929190620000f1565b5083600260006101000a81548160ff02191690836002811115620000785762000077620004cc565b5b02179055508260058190555080600660006101000a81548173ffffffffffffffffffffffffffffffffffffffff021916908373ffffffffffffffffffffffffffffffffffffffff16021790555060006007819055508160039080519060200190620000e5929190620000f1565b5050505050506200055f565b828054620000ff906200052a565b90600052602060002090601f0160209004810192826200012357600085556200016f565b82601f106200013e57805160ff19168380011785556200016f565b828001600101855582156200016f579182015b828111156200016e57825182559160200191906001019062000151565b5b5090506200017e919062000182565b5090565b5b808211156200019d57600081600090555060010162000183565b5090565b6000604051905090565b600080fd5b600080fd5b600080fd5b600080fd5b6000601f19601f8301169050919050565b7f4e487b7100000000000000000000000000000000000000000000000000000000600052604160045260246000fd5b6200020a82620001bf565b810181811067ffffffffffffffff821117156200022c576200022b620001d0565b5b80604052505050565b600062000241620001a1565b90506200024f8282620001ff565b919050565b600067ffffffffffffffff821115620002725762000271620001d0565b5b6200027d82620001bf565b9050602081019050919050565b60005b83811015620002aa5780820151818401526020810190506200028d565b83811115620002ba576000848401525b50505050565b6000620002d7620002d18462000254565b62000235565b905082815260208101848484011115620002f657620002f5620001ba565b5b620003038482856200028a565b509392505050565b600082601f830112620003235762000322620001b5565b5b815162000335848260208601620002c0565b91505092915050565b600381106200034c57600080fd5b50565b60008151905062000360816200033e565b92915050565b6000819050919050565b6200037b8162000366565b81146200038757600080fd5b50565b6000815190506200039b8162000370565b92915050565b600073ffffffffffffffffffffffffffffffffffffffff82169050919050565b6000620003ce82620003a1565b9050919050565b620003e081620003c1565b8114620003ec57600080fd5b50565b6000815190506200040081620003d5565b92915050565b600080600080600060a08688031215620004255762000424620001ab565b5b600086015167ffffffffffffffff811115620004465762000445620001b0565b5b62000454888289016200030b565b955050602062000467888289016200034f565b94505060406200047a888289016200038a565b935050606086015167ffffffffffffffff8111156200049e576200049d620001b0565b5b620004ac888289016200030b565b9250506080620004bf88828901620003ef565b9150509295509295909350565b7f4e487b7100000000000000000000000000000000000000000000000000000000600052602160045260246000fd5b7f4e487b7100000000000000000000000000000000000000000000000000000000600052602260045260246000fd5b600060028204905060018216806200054357607f821691505b602082108103620005595762000558620004fb565b5b50919050565b6106e1806200056f6000396000f3fe608060405234801561001057600080fd5b506004361061009e5760003560e01c80639de2ee21116100665780639de2ee2114610123578063a035b1fe14610141578063b47b4d961461015f578063dfe6423d1461017d578063ef430aa6146101ad5761009e565b806306fdde03146100a35780630ff2d77b146100c1578063297a1f56146100dd5780634a75b30a146100fb5780637284e41614610105575b600080fd5b6100ab6101cb565b6040516100b89190610432565b60405180910390f35b6100db60048036038101906100d6919061048f565b610259565b005b6100e561028e565b6040516100f291906104cb565b60405180910390f35b610103610294565b005b61010d6102ae565b60405161011a9190610432565b60405180910390f35b61012b61033c565b6040516101389190610527565b60405180910390f35b610149610362565b60405161015691906104cb565b60405180910390f35b610167610368565b60405161017491906104cb565b60405180910390f35b6101976004803603810190610192919061048f565b61036e565b6040516101a491906104cb565b60405180910390f35b6101b5610386565b6040516101c291906105b9565b60405180910390f35b600180546101d890610603565b80601f016020809104026020016040519081016040528092919081815260200182805461020490610603565b80156102515780601f1061022657610100808354040283529160200191610251565b820191906000526020600020905b81548152906001019060200180831161023457829003601f168201915b505050505081565b6004600081548092919061026c90610663565b9190505550806008600060045481526020019081526020016000208190555050565b60045481565b600760008154809291906102a790610663565b9190505550565b600380546102bb90610603565b80601f01602080910402602001604051908101604052809291908181526020018280546102e790610603565b80156103345780601f1061030957610100808354040283529160200191610334565b820191906000526020600020905b81548152906001019060200180831161031757829003601f168201915b505050505081565b600660009054906101000a900473ffffffffffffffffffffffffffffffffffffffff1681565b60055481565b60075481565b60086020528060005260406000206000915090505481565b600260009054906101000a900460ff1681565b600081519050919050565b600082825260208201905092915050565b60005b838110156103d35780820151818401526020810190506103b8565b838111156103e2576000848401525b50505050565b6000601f19601f8301169050919050565b600061040482610399565b61040e81856103a4565b935061041e8185602086016103b5565b610427816103e8565b840191505092915050565b6000602082019050818103600083015261044c81846103f9565b905092915050565b600080fd5b6000819050919050565b61046c81610459565b811461047757600080fd5b50565b60008135905061048981610463565b92915050565b6000602082840312156104a5576104a4610454565b5b60006104b38482850161047a565b91505092915050565b6104c581610459565b82525050565b60006020820190506104e060008301846104bc565b92915050565b600073ffffffffffffffffffffffffffffffffffffffff82169050919050565b6000610511826104e6565b9050919050565b61052181610506565b82525050565b600060208201905061053c6000830184610518565b92915050565b7f4e487b7100000000000000000000000000000000000000000000000000000000600052602160045260246000fd5b6003811061058257610581610542565b5b50565b600081905061059382610571565b919050565b60006105a382610585565b9050919050565b6105b381610598565b82525050565b60006020820190506105ce60008301846105aa565b92915050565b7f4e487b7100000000000000000000000000000000000000000000000000000000600052602260045260246000fd5b6000600282049050600182168061061b57607f821691505b60208210810361062e5761062d6105d4565b5b50919050565b7f4e487b7100000000000000000000000000000000000000000000000000000000600052601160045260246000fd5b600061066e82610459565b91507fffffffffffffffffffffffffffffffffffffffffffffffffffffffffffffffff82036106a05761069f610634565b5b60018201905091905056fea26469706673582212201d30247b912d37a528b7eaa1974d6a3b36cdb3af988992709326ae10773d5c5864736f6c634300080d0033",
  "immutableReferences": {},
  "source": "// SPDX-License-Identifier: MIT\npragma solidity ^0.8.13;\n\nenum CATEGORIES {\n  SEDAN,\n  SUV,\n  HATCHBACK\n}\n\ncontract Car {\n  uint carId;\n  string public name;\n  CATEGORIES public category;\n  string public description;\n  uint256 public carCount;\n  uint public price;\n  address payable public dealer;\n  uint public quantitySold;\n  mapping (uint => uint) public carTokenIds;\n\n\n  constructor(\n    string memory _name,\n    CATEGORIES _category,\n    uint _price,\n    string memory _description,\n    address payable _dealer\n  ) {\n    name = _name;\n    category = _category;\n    price = _price;\n    dealer = _dealer;\n    quantitySold = 0;\n    description = _description;\n  }\n\n  function addcarTokenId(uint _tokenId) public {\n    carCount++;\n    carTokenIds[carCount] = _tokenId;\n  }\n\n  function incrementQuantitySold() public{\n    quantitySold++;\n  }\n\n\n}",
  "sourcePath": "/home/swayam/code/blockchain/ether-cartel-with-truffle/contracts/Car.sol",
  "compiler": {
    "name": "solc",
    "version": "0.8.13+commit.abaa5c0e.Emscripten.clang"
  },
  "schemaVersion": "3.4.7",
  "updatedAt": "2022-06-12T05:36:02.574Z",
  "devdoc": {
    "kind": "dev",
    "methods": {},
    "version": 1
  },
  "userdoc": {
    "kind": "user",
    "methods": {},
    "version": 1
  }
}