{
  "contractName": "Dealer",
  "abi": [
    {
      "anonymous": false,
      "inputs": [
        {
          "indexed": true,
          "internalType": "address",
          "name": "previousOwner",
          "type": "address"
        },
        {
          "indexed": true,
          "internalType": "address",
          "name": "newOwner",
          "type": "address"
        }
      ],
      "name": "OwnershipTransferred",
      "type": "event"
    },
    {
      "inputs": [
        {
          "internalType": "address",
          "name": "",
          "type": "address"
        }
      ],
      "name": "dealerAddresses",
      "outputs": [
        {
          "internalType": "uint256",
          "name": "",
          "type": "uint256"
        }
      ],
      "stateMutability": "view",
      "type": "function",
      "constant": true
    },
    {
      "inputs": [
        {
          "internalType": "uint256",
          "name": "",
          "type": "uint256"
        }
      ],
      "name": "dealerDetails",
      "outputs": [
        {
          "internalType": "bool",
          "name": "isActive",
          "type": "bool"
        },
        {
          "internalType": "string",
          "name": "name",
          "type": "string"
        },
        {
          "internalType": "string",
          "name": "phone",
          "type": "string"
        },
        {
          "internalType": "address",
          "name": "dealerAddress",
          "type": "address"
        }
      ],
      "stateMutability": "view",
      "type": "function",
      "constant": true
    },
    {
      "inputs": [],
      "name": "owner",
      "outputs": [
        {
          "internalType": "address",
          "name": "",
          "type": "address"
        }
      ],
      "stateMutability": "view",
      "type": "function",
      "constant": true
    },
    {
      "inputs": [],
      "name": "renounceOwnership",
      "outputs": [],
      "stateMutability": "nonpayable",
      "type": "function"
    },
    {
      "inputs": [
        {
          "internalType": "address",
          "name": "newOwner",
          "type": "address"
        }
      ],
      "name": "transferOwnership",
      "outputs": [],
      "stateMutability": "nonpayable",
      "type": "function"
    },
    {
      "inputs": [
        {
          "internalType": "string",
          "name": "_name",
          "type": "string"
        },
        {
          "internalType": "string",
          "name": "_phone",
          "type": "string"
        },
        {
          "internalType": "address",
          "name": "_address",
          "type": "address"
        }
      ],
      "name": "registerDealer",
      "outputs": [],
      "stateMutability": "nonpayable",
      "type": "function"
    },
    {
      "inputs": [
        {
          "internalType": "address",
          "name": "_address",
          "type": "address"
        }
      ],
      "name": "blockDealer",
      "outputs": [],
      "stateMutability": "nonpayable",
      "type": "function"
    },
    {
      "inputs": [
        {
          "internalType": "address",
          "name": "_address",
          "type": "address"
        }
      ],
      "name": "unblockDealer",
      "outputs": [],
      "stateMutability": "nonpayable",
      "type": "function"
    },
    {
      "inputs": [],
      "name": "isDealer",
      "outputs": [
        {
          "internalType": "bool",
          "name": "",
          "type": "bool"
        }
      ],
      "stateMutability": "view",
      "type": "function",
      "constant": true
    },
    {
      "inputs": [
        {
          "internalType": "uint256",
          "name": "start",
          "type": "uint256"
        },
        {
          "internalType": "uint256",
          "name": "end",
          "type": "uint256"
        }
      ],
      "name": "getDealers",
      "outputs": [
        {
          "components": [
            {
              "internalType": "bool",
              "name": "isActive",
              "type": "bool"
            },
            {
              "internalType": "string",
              "name": "name",
              "type": "string"
            },
            {
              "internalType": "string",
              "name": "phone",
              "type": "string"
            },
            {
              "internalType": "address",
              "name": "dealerAddress",
              "type": "address"
            }
          ],
          "internalType": "struct Dealer.DealerStruct[]",
          "name": "",
          "type": "tuple[]"
        }
      ],
      "stateMutability": "view",
      "type": "function",
      "constant": true
    }
  ],
  "bytecode": "0x608060405234801561001057600080fd5b5061002d61002261003260201b60201c565b61003a60201b60201c565b6100fe565b600033905090565b60008060009054906101000a900473ffffffffffffffffffffffffffffffffffffffff169050816000806101000a81548173ffffffffffffffffffffffffffffffffffffffff021916908373ffffffffffffffffffffffffffffffffffffffff1602179055508173ffffffffffffffffffffffffffffffffffffffff168173ffffffffffffffffffffffffffffffffffffffff167f8be0079c531659141344cd1fd0a4f28419497f9722a3daafe3b4186f6b6457e060405160405180910390a35050565b61181d8061010d6000396000f3fe608060405234801561001057600080fd5b506004361061009e5760003560e01c806375370af61161006657806375370af61461015c5780638c59afc6146101785780638da5cb5b14610196578063cd7713f2146101b4578063f2fde38b146101d05761009e565b806323d7e878146100a357806328f7f6f0146100d3578063350640501461010657806359145d7f14610136578063715018a614610152575b600080fd5b6100bd60048036038101906100b89190610f0b565b6101ec565b6040516100ca9190610f51565b60405180910390f35b6100ed60048036038101906100e89190610f98565b610204565b6040516100fd9493929190611088565b60405180910390f35b610120600480360381019061011b91906110db565b610381565b60405161012d91906112af565b60405180910390f35b610150600480360381019061014b9190610f0b565b610623565b005b61015a61073a565b005b61017660048036038101906101719190611406565b6107c2565b005b610180610a16565b60405161018d9190611491565b60405180910390f35b61019e610ab3565b6040516101ab91906114ac565b60405180910390f35b6101ce60048036038101906101c99190610f0b565b610adc565b005b6101ea60048036038101906101e59190610f0b565b610bf3565b005b60016020528060005260406000206000915090505481565b6002818154811061021457600080fd5b90600052602060002090600402016000915090508060000160009054906101000a900460ff169080600101805461024a906114f6565b80601f0160208091040260200160405190810160405280929190818152602001828054610276906114f6565b80156102c35780601f10610298576101008083540402835291602001916102c3565b820191906000526020600020905b8154815290600101906020018083116102a657829003601f168201915b5050505050908060020180546102d8906114f6565b80601f0160208091040260200160405190810160405280929190818152602001828054610304906114f6565b80156103515780601f1061032657610100808354040283529160200191610351565b820191906000526020600020905b81548152906001019060200180831161033457829003601f168201915b5050505050908060030160009054906101000a900473ffffffffffffffffffffffffffffffffffffffff16905084565b6060600060028054905083106103a757836002805490506103a29190611556565b6103b4565b83836103b39190611556565b5b905060008167ffffffffffffffff8111156103d2576103d16112db565b5b60405190808252806020026020018201604052801561040b57816020015b6103f8610db6565b8152602001906001900390816103f05790505b50905060005b828110156106175760028187610427919061158a565b81548110610438576104376115e0565b5b90600052602060002090600402016040518060800160405290816000820160009054906101000a900460ff1615151515815260200160018201805461047c906114f6565b80601f01602080910402602001604051908101604052809291908181526020018280546104a8906114f6565b80156104f55780601f106104ca576101008083540402835291602001916104f5565b820191906000526020600020905b8154815290600101906020018083116104d857829003601f168201915b5050505050815260200160028201805461050e906114f6565b80601f016020809104026020016040519081016040528092919081815260200182805461053a906114f6565b80156105875780601f1061055c57610100808354040283529160200191610587565b820191906000526020600020905b81548152906001019060200180831161056a57829003601f168201915b505050505081526020016003820160009054906101000a900473ffffffffffffffffffffffffffffffffffffffff1673ffffffffffffffffffffffffffffffffffffffff1673ffffffffffffffffffffffffffffffffffffffff16815250508282815181106105f9576105f86115e0565b5b6020026020010181905250808061060f9061160f565b915050610411565b50809250505092915050565b61062b610cea565b73ffffffffffffffffffffffffffffffffffffffff16610649610ab3565b73ffffffffffffffffffffffffffffffffffffffff161461069f576040517f08c379a0000000000000000000000000000000000000000000000000000000008152600401610696906116a3565b60405180910390fd5b6000600160008373ffffffffffffffffffffffffffffffffffffffff1673ffffffffffffffffffffffffffffffffffffffff1681526020019081526020016000205490506000811461073657600060026001836106fc9190611556565b8154811061070d5761070c6115e0565b5b906000526020600020906004020160000160006101000a81548160ff0219169083151502179055505b5050565b610742610cea565b73ffffffffffffffffffffffffffffffffffffffff16610760610ab3565b73ffffffffffffffffffffffffffffffffffffffff16146107b6576040517f08c379a00000000000000000000000000000000000000000000000000000000081526004016107ad906116a3565b60405180910390fd5b6107c06000610cf2565b565b6107ca610cea565b73ffffffffffffffffffffffffffffffffffffffff166107e8610ab3565b73ffffffffffffffffffffffffffffffffffffffff161461083e576040517f08c379a0000000000000000000000000000000000000000000000000000000008152600401610835906116a3565b60405180910390fd5b6000600160008373ffffffffffffffffffffffffffffffffffffffff1673ffffffffffffffffffffffffffffffffffffffff16815260200190815260200160002054146108c0576040517f08c379a00000000000000000000000000000000000000000000000000000000081526004016108b790611735565b60405180910390fd5b600260405180608001604052806001151581526020018581526020018481526020018373ffffffffffffffffffffffffffffffffffffffff16815250908060018154018082558091505060019003906000526020600020906004020160009091909190915060008201518160000160006101000a81548160ff0219169083151502179055506020820151816001019080519060200190610961929190610df6565b50604082015181600201908051906020019061097e929190610df6565b5060608201518160030160006101000a81548173ffffffffffffffffffffffffffffffffffffffff021916908373ffffffffffffffffffffffffffffffffffffffff1602179055505050600280549050600160008373ffffffffffffffffffffffffffffffffffffffff1673ffffffffffffffffffffffffffffffffffffffff16815260200190815260200160002081905550505050565b600080600160003273ffffffffffffffffffffffffffffffffffffffff1673ffffffffffffffffffffffffffffffffffffffff16815260200190815260200160002054905060008114610aaa576002600182610a729190611556565b81548110610a8357610a826115e0565b5b906000526020600020906004020160000160009054906101000a900460ff16915050610ab0565b60009150505b90565b60008060009054906101000a900473ffffffffffffffffffffffffffffffffffffffff16905090565b610ae4610cea565b73ffffffffffffffffffffffffffffffffffffffff16610b02610ab3565b73ffffffffffffffffffffffffffffffffffffffff1614610b58576040517f08c379a0000000000000000000000000000000000000000000000000000000008152600401610b4f906116a3565b60405180910390fd5b6000600160008373ffffffffffffffffffffffffffffffffffffffff1673ffffffffffffffffffffffffffffffffffffffff16815260200190815260200160002054905060008114610bef5760016002600183610bb59190611556565b81548110610bc657610bc56115e0565b5b906000526020600020906004020160000160006101000a81548160ff0219169083151502179055505b5050565b610bfb610cea565b73ffffffffffffffffffffffffffffffffffffffff16610c19610ab3565b73ffffffffffffffffffffffffffffffffffffffff1614610c6f576040517f08c379a0000000000000000000000000000000000000000000000000000000008152600401610c66906116a3565b60405180910390fd5b600073ffffffffffffffffffffffffffffffffffffffff168173ffffffffffffffffffffffffffffffffffffffff1603610cde576040517f08c379a0000000000000000000000000000000000000000000000000000000008152600401610cd5906117c7565b60405180910390fd5b610ce781610cf2565b50565b600033905090565b60008060009054906101000a900473ffffffffffffffffffffffffffffffffffffffff169050816000806101000a81548173ffffffffffffffffffffffffffffffffffffffff021916908373ffffffffffffffffffffffffffffffffffffffff1602179055508173ffffffffffffffffffffffffffffffffffffffff168173ffffffffffffffffffffffffffffffffffffffff167f8be0079c531659141344cd1fd0a4f28419497f9722a3daafe3b4186f6b6457e060405160405180910390a35050565b60405180608001604052806000151581526020016060815260200160608152602001600073ffffffffffffffffffffffffffffffffffffffff1681525090565b828054610e02906114f6565b90600052602060002090601f016020900481019282610e245760008555610e6b565b82601f10610e3d57805160ff1916838001178555610e6b565b82800160010185558215610e6b579182015b82811115610e6a578251825591602001919060010190610e4f565b5b509050610e789190610e7c565b5090565b5b80821115610e95576000816000905550600101610e7d565b5090565b6000604051905090565b600080fd5b600080fd5b600073ffffffffffffffffffffffffffffffffffffffff82169050919050565b6000610ed882610ead565b9050919050565b610ee881610ecd565b8114610ef357600080fd5b50565b600081359050610f0581610edf565b92915050565b600060208284031215610f2157610f20610ea3565b5b6000610f2f84828501610ef6565b91505092915050565b6000819050919050565b610f4b81610f38565b82525050565b6000602082019050610f666000830184610f42565b92915050565b610f7581610f38565b8114610f8057600080fd5b50565b600081359050610f9281610f6c565b92915050565b600060208284031215610fae57610fad610ea3565b5b6000610fbc84828501610f83565b91505092915050565b60008115159050919050565b610fda81610fc5565b82525050565b600081519050919050565b600082825260208201905092915050565b60005b8381101561101a578082015181840152602081019050610fff565b83811115611029576000848401525b50505050565b6000601f19601f8301169050919050565b600061104b82610fe0565b6110558185610feb565b9350611065818560208601610ffc565b61106e8161102f565b840191505092915050565b61108281610ecd565b82525050565b600060808201905061109d6000830187610fd1565b81810360208301526110af8186611040565b905081810360408301526110c38185611040565b90506110d26060830184611079565b95945050505050565b600080604083850312156110f2576110f1610ea3565b5b600061110085828601610f83565b925050602061111185828601610f83565b9150509250929050565b600081519050919050565b600082825260208201905092915050565b6000819050602082019050919050565b61115081610fc5565b82525050565b600082825260208201905092915050565b600061117282610fe0565b61117c8185611156565b935061118c818560208601610ffc565b6111958161102f565b840191505092915050565b6111a981610ecd565b82525050565b60006080830160008301516111c76000860182611147565b50602083015184820360208601526111df8282611167565b915050604083015184820360408601526111f98282611167565b915050606083015161120e60608601826111a0565b508091505092915050565b600061122583836111af565b905092915050565b6000602082019050919050565b60006112458261111b565b61124f8185611126565b93508360208202850161126185611137565b8060005b8581101561129d578484038952815161127e8582611219565b94506112898361122d565b925060208a01995050600181019050611265565b50829750879550505050505092915050565b600060208201905081810360008301526112c9818461123a565b905092915050565b600080fd5b600080fd5b7f4e487b7100000000000000000000000000000000000000000000000000000000600052604160045260246000fd5b6113138261102f565b810181811067ffffffffffffffff82111715611332576113316112db565b5b80604052505050565b6000611345610e99565b9050611351828261130a565b919050565b600067ffffffffffffffff821115611371576113706112db565b5b61137a8261102f565b9050602081019050919050565b82818337600083830152505050565b60006113a96113a484611356565b61133b565b9050828152602081018484840111156113c5576113c46112d6565b5b6113d0848285611387565b509392505050565b600082601f8301126113ed576113ec6112d1565b5b81356113fd848260208601611396565b91505092915050565b60008060006060848603121561141f5761141e610ea3565b5b600084013567ffffffffffffffff81111561143d5761143c610ea8565b5b611449868287016113d8565b935050602084013567ffffffffffffffff81111561146a57611469610ea8565b5b611476868287016113d8565b925050604061148786828701610ef6565b9150509250925092565b60006020820190506114a66000830184610fd1565b92915050565b60006020820190506114c16000830184611079565b92915050565b7f4e487b7100000000000000000000000000000000000000000000000000000000600052602260045260246000fd5b6000600282049050600182168061150e57607f821691505b602082108103611521576115206114c7565b5b50919050565b7f4e487b7100000000000000000000000000000000000000000000000000000000600052601160045260246000fd5b600061156182610f38565b915061156c83610f38565b92508282101561157f5761157e611527565b5b828203905092915050565b600061159582610f38565b91506115a083610f38565b9250827fffffffffffffffffffffffffffffffffffffffffffffffffffffffffffffffff038211156115d5576115d4611527565b5b828201905092915050565b7f4e487b7100000000000000000000000000000000000000000000000000000000600052603260045260246000fd5b600061161a82610f38565b91507fffffffffffffffffffffffffffffffffffffffffffffffffffffffffffffffff820361164c5761164b611527565b5b600182019050919050565b7f4f776e61626c653a2063616c6c6572206973206e6f7420746865206f776e6572600082015250565b600061168d602083610feb565b915061169882611657565b602082019050919050565b600060208201905081810360008301526116bc81611680565b9050919050565b7f4465616c657220776974682074686973206164647265737320616c726561647960008201527f2065786973747321000000000000000000000000000000000000000000000000602082015250565b600061171f602883610feb565b915061172a826116c3565b604082019050919050565b6000602082019050818103600083015261174e81611712565b9050919050565b7f4f776e61626c653a206e6577206f776e657220697320746865207a65726f206160008201527f6464726573730000000000000000000000000000000000000000000000000000602082015250565b60006117b1602683610feb565b91506117bc82611755565b604082019050919050565b600060208201905081810360008301526117e0816117a4565b905091905056fea26469706673582212201ac30e8bd2e618550da31645eaa35c1269faa1f0434d264c37d89144dcb1268b64736f6c634300080d0033",
  "immutableReferences": {},
  "source": "// SPDX-License-Identifier: MIT\npragma solidity ^0.8.13;\n\nimport \"@openzeppelin/contracts/access/Ownable.sol\";\n\ncontract Dealer is Ownable {\n\n  struct DealerStruct {\n    bool isActive;\n    string name;\n    string phone;\n    address dealerAddress;\n  }\n\n  mapping(address => uint) public dealerAddresses;        // this will help to avoid the duplicates in constant time\n  DealerStruct[] public dealerDetails;\n\n  function registerDealer(string memory _name, string memory _phone, address _address) public onlyOwner {\n    if(dealerAddresses[_address] != 0) revert(\"Dealer with this address already exists!\");\n    dealerDetails.push(DealerStruct(true, _name, _phone, _address));\n    dealerAddresses[_address] = dealerDetails.length;\n  }\n\n  function blockDealer(address _address) public onlyOwner {\n    uint dealerLocation = dealerAddresses[_address];\n    if(dealerLocation != 0) dealerDetails[dealerLocation - 1].isActive = false;\n  }\n\n  function unblockDealer(address _address) public onlyOwner {\n    uint dealerLocation = dealerAddresses[_address];\n    if(dealerLocation != 0) dealerDetails[dealerLocation - 1].isActive = true;\n  }\n\n  function isDealer() public view returns(bool) {\n    uint dealerLocation = dealerAddresses[tx.origin];\n    if(dealerLocation != 0) return dealerDetails[dealerLocation - 1].isActive;\n    else return false;\n  }\n\n  function getDealers(uint start, uint end) public view returns(DealerStruct[] memory) {\n    uint size = end < dealerDetails.length ? end - start : dealerDetails.length - start;\n    DealerStruct[] memory data = new DealerStruct[](size);\n\n    for(uint i=0;i<size;i++) {\n      data[i] = dealerDetails[start + i];\n    }\n\n    return data;\n  }\n\n}\n\n// contract Dealer is Ownable {\n\n//   struct DealerStruct {\n//     bool isApproved;\n//     string name;\n//     string phone;\n//   }\n\n//   mapping(address => DealerStruct) dealers;\n\n//   function registerDealer(string memory _name, string memory _phone, address _address) public onlyOwner {\n//     dealers[_address] = DealerStruct(true, _name, _phone);\n//   }\n\n//   function deleteDealer(address _address) public onlyOwner {\n//     delete dealers[_address];         // this won't work if DealerStruct contains a mapping inside, we can't delete the whole mapping from solidity, only mapping element can be deleted\n//   }\n\n//   function isDealer() public view returns(bool) {\n//     return dealers[tx.origin].isApproved;\n//   }\n\n// }",
  "sourcePath": "/home/swayam/code/blockchain/ether-cartel-with-truffle/contracts/Dealer.sol",
  "compiler": {
    "name": "solc",
    "version": "0.8.13+commit.abaa5c0e.Emscripten.clang"
  },
  "schemaVersion": "3.4.7",
  "updatedAt": "2022-06-12T05:38:48.631Z",
  "networkType": "ethereum",
  "devdoc": {
    "kind": "dev",
    "methods": {
      "owner()": {
        "details": "Returns the address of the current owner."
      },
      "renounceOwnership()": {
        "details": "Leaves the contract without owner. It will not be possible to call `onlyOwner` functions anymore. Can only be called by the current owner. NOTE: Renouncing ownership will leave the contract without an owner, thereby removing any functionality that is only available to the owner."
      },
      "transferOwnership(address)": {
        "details": "Transfers ownership of the contract to a new account (`newOwner`). Can only be called by the current owner."
      }
    },
    "version": 1
  },
  "userdoc": {
    "kind": "user",
    "methods": {},
    "version": 1
  }
}