{
  "contractName": "NFT",
  "abi": [
    {
      "inputs": [],
      "stateMutability": "nonpayable",
      "type": "constructor"
    },
    {
      "anonymous": false,
      "inputs": [
        {
          "indexed": true,
          "internalType": "address",
          "name": "owner",
          "type": "address"
        },
        {
          "indexed": true,
          "internalType": "address",
          "name": "approved",
          "type": "address"
        },
        {
          "indexed": true,
          "internalType": "uint256",
          "name": "tokenId",
          "type": "uint256"
        }
      ],
      "name": "Approval",
      "type": "event"
    },
    {
      "anonymous": false,
      "inputs": [
        {
          "indexed": true,
          "internalType": "address",
          "name": "owner",
          "type": "address"
        },
        {
          "indexed": true,
          "internalType": "address",
          "name": "operator",
          "type": "address"
        },
        {
          "indexed": false,
          "internalType": "bool",
          "name": "approved",
          "type": "bool"
        }
      ],
      "name": "ApprovalForAll",
      "type": "event"
    },
    {
      "anonymous": false,
      "inputs": [
        {
          "indexed": true,
          "internalType": "address",
          "name": "from",
          "type": "address"
        },
        {
          "indexed": true,
          "internalType": "address",
          "name": "to",
          "type": "address"
        },
        {
          "indexed": true,
          "internalType": "uint256",
          "name": "tokenId",
          "type": "uint256"
        }
      ],
      "name": "Transfer",
      "type": "event"
    },
    {
      "inputs": [
        {
          "internalType": "address",
          "name": "owner",
          "type": "address"
        },
        {
          "internalType": "address",
          "name": "operator",
          "type": "address"
        },
        {
          "internalType": "bool",
          "name": "approved",
          "type": "bool"
        }
      ],
      "name": "_setApprovalForAll",
      "outputs": [],
      "stateMutability": "nonpayable",
      "type": "function"
    },
    {
      "inputs": [
        {
          "internalType": "address",
          "name": "to",
          "type": "address"
        },
        {
          "internalType": "uint256",
          "name": "tokenId",
          "type": "uint256"
        }
      ],
      "name": "approve",
      "outputs": [],
      "stateMutability": "nonpayable",
      "type": "function"
    },
    {
      "inputs": [
        {
          "internalType": "address",
          "name": "owner",
          "type": "address"
        }
      ],
      "name": "balanceOf",
      "outputs": [
        {
          "internalType": "uint256",
          "name": "",
          "type": "uint256"
        }
      ],
      "stateMutability": "view",
      "type": "function",
      "constant": true
    },
    {
      "inputs": [
        {
          "internalType": "uint256",
          "name": "tokenId",
          "type": "uint256"
        }
      ],
      "name": "getApproved",
      "outputs": [
        {
          "internalType": "address",
          "name": "",
          "type": "address"
        }
      ],
      "stateMutability": "view",
      "type": "function",
      "constant": true
    },
    {
      "inputs": [
        {
          "internalType": "address",
          "name": "owner",
          "type": "address"
        },
        {
          "internalType": "address",
          "name": "operator",
          "type": "address"
        }
      ],
      "name": "isApprovedForAll",
      "outputs": [
        {
          "internalType": "bool",
          "name": "",
          "type": "bool"
        }
      ],
      "stateMutability": "view",
      "type": "function",
      "constant": true
    },
    {
      "inputs": [],
      "name": "name",
      "outputs": [
        {
          "internalType": "string",
          "name": "",
          "type": "string"
        }
      ],
      "stateMutability": "view",
      "type": "function",
      "constant": true
    },
    {
      "inputs": [
        {
          "internalType": "uint256",
          "name": "tokenId",
          "type": "uint256"
        }
      ],
      "name": "ownerOf",
      "outputs": [
        {
          "internalType": "address",
          "name": "",
          "type": "address"
        }
      ],
      "stateMutability": "view",
      "type": "function",
      "constant": true
    },
    {
      "inputs": [
        {
          "internalType": "address",
          "name": "from",
          "type": "address"
        },
        {
          "internalType": "address",
          "name": "to",
          "type": "address"
        },
        {
          "internalType": "uint256",
          "name": "tokenId",
          "type": "uint256"
        }
      ],
      "name": "safeTransferFrom",
      "outputs": [],
      "stateMutability": "nonpayable",
      "type": "function"
    },
    {
      "inputs": [
        {
          "internalType": "address",
          "name": "from",
          "type": "address"
        },
        {
          "internalType": "address",
          "name": "to",
          "type": "address"
        },
        {
          "internalType": "uint256",
          "name": "tokenId",
          "type": "uint256"
        },
        {
          "internalType": "bytes",
          "name": "_data",
          "type": "bytes"
        }
      ],
      "name": "safeTransferFrom",
      "outputs": [],
      "stateMutability": "nonpayable",
      "type": "function"
    },
    {
      "inputs": [
        {
          "internalType": "address",
          "name": "operator",
          "type": "address"
        },
        {
          "internalType": "bool",
          "name": "approved",
          "type": "bool"
        }
      ],
      "name": "setApprovalForAll",
      "outputs": [],
      "stateMutability": "nonpayable",
      "type": "function"
    },
    {
      "inputs": [
        {
          "internalType": "bytes4",
          "name": "interfaceId",
          "type": "bytes4"
        }
      ],
      "name": "supportsInterface",
      "outputs": [
        {
          "internalType": "bool",
          "name": "",
          "type": "bool"
        }
      ],
      "stateMutability": "view",
      "type": "function",
      "constant": true
    },
    {
      "inputs": [],
      "name": "symbol",
      "outputs": [
        {
          "internalType": "string",
          "name": "",
          "type": "string"
        }
      ],
      "stateMutability": "view",
      "type": "function",
      "constant": true
    },
    {
      "inputs": [],
      "name": "tokenCount",
      "outputs": [
        {
          "internalType": "uint256",
          "name": "",
          "type": "uint256"
        }
      ],
      "stateMutability": "view",
      "type": "function",
      "constant": true
    },
    {
      "inputs": [
        {
          "internalType": "uint256",
          "name": "tokenId",
          "type": "uint256"
        }
      ],
      "name": "tokenURI",
      "outputs": [
        {
          "internalType": "string",
          "name": "",
          "type": "string"
        }
      ],
      "stateMutability": "view",
      "type": "function",
      "constant": true
    },
    {
      "inputs": [
        {
          "internalType": "address",
          "name": "from",
          "type": "address"
        },
        {
          "internalType": "address",
          "name": "to",
          "type": "address"
        },
        {
          "internalType": "uint256",
          "name": "tokenId",
          "type": "uint256"
        }
      ],
      "name": "transferFrom",
      "outputs": [],
      "stateMutability": "nonpayable",
      "type": "function"
    },
    {
      "inputs": [],
      "name": "mint",
      "outputs": [
        {
          "internalType": "uint256",
          "name": "",
          "type": "uint256"
        }
      ],
      "stateMutability": "nonpayable",
      "type": "function"
    }
  ],
  "bytecode": "0x60806040523480156200001157600080fd5b506040518060400160405280600c81526020017f45746865722043617274656c00000000000000000000000000000000000000008152506040518060400160405280600681526020017f43415254454c0000000000000000000000000000000000000000000000000000815250816000908051906020019062000096929190620000b8565b508060019080519060200190620000af929190620000b8565b505050620001cc565b828054620000c69062000197565b90600052602060002090601f016020900481019282620000ea576000855562000136565b82601f106200010557805160ff191683800117855562000136565b8280016001018555821562000136579182015b828111156200013557825182559160200191906001019062000118565b5b50905062000145919062000149565b5090565b5b80821115620001645760008160009055506001016200014a565b5090565b7f4e487b7100000000000000000000000000000000000000000000000000000000600052602260045260246000fd5b60006002820490506001821680620001b057607f821691505b602082108103620001c657620001c562000168565b5b50919050565b61281080620001dc6000396000f3fe608060405234801561001057600080fd5b50600436106101005760003560e01c806370a0823111610097578063a22cb46511610066578063a22cb465146102ad578063b88d4fde146102c9578063c87b56dd146102e5578063e985e9c51461031557610100565b806370a08231146102255780638c4e3f321461025557806395d89b41146102715780639f181b5e1461028f57610100565b80631249c58b116100d35780631249c58b1461019f57806323b872dd146101bd57806342842e0e146101d95780636352211e146101f557610100565b806301ffc9a71461010557806306fdde0314610135578063081812fc14610153578063095ea7b314610183575b600080fd5b61011f600480360381019061011a9190611742565b610345565b60405161012c919061178a565b60405180910390f35b61013d610427565b60405161014a919061183e565b60405180910390f35b61016d60048036038101906101689190611896565b6104b9565b60405161017a9190611904565b60405180910390f35b61019d6004803603810190610198919061194b565b61053e565b005b6101a7610655565b6040516101b4919061199a565b60405180910390f35b6101d760048036038101906101d291906119b5565b610683565b005b6101f360048036038101906101ee91906119b5565b6106e3565b005b61020f600480360381019061020a9190611896565b610703565b60405161021c9190611904565b60405180910390f35b61023f600480360381019061023a9190611a08565b6107b4565b60405161024c919061199a565b60405180910390f35b61026f600480360381019061026a9190611a61565b61086b565b005b6102796109d7565b604051610286919061183e565b60405180910390f35b610297610a69565b6040516102a4919061199a565b60405180910390f35b6102c760048036038101906102c29190611ab4565b610a6f565b005b6102e360048036038101906102de9190611c29565b610a85565b005b6102ff60048036038101906102fa9190611896565b610ae7565b60405161030c919061183e565b60405180910390f35b61032f600480360381019061032a9190611cac565b610b8e565b60405161033c919061178a565b60405180910390f35b60007f80ac58cd000000000000000000000000000000000000000000000000000000007bffffffffffffffffffffffffffffffffffffffffffffffffffffffff1916827bffffffffffffffffffffffffffffffffffffffffffffffffffffffff1916148061041057507f5b5e139f000000000000000000000000000000000000000000000000000000007bffffffffffffffffffffffffffffffffffffffffffffffffffffffff1916827bffffffffffffffffffffffffffffffffffffffffffffffffffffffff1916145b80610420575061041f82610c22565b5b9050919050565b60606000805461043690611d1b565b80601f016020809104026020016040519081016040528092919081815260200182805461046290611d1b565b80156104af5780601f10610484576101008083540402835291602001916104af565b820191906000526020600020905b81548152906001019060200180831161049257829003601f168201915b5050505050905090565b60006104c482610c8c565b610503576040517f08c379a00000000000000000000000000000000000000000000000000000000081526004016104fa90611dbe565b60405180910390fd5b6004600083815260200190815260200160002060009054906101000a900473ffffffffffffffffffffffffffffffffffffffff169050919050565b600061054982610703565b90508073ffffffffffffffffffffffffffffffffffffffff168373ffffffffffffffffffffffffffffffffffffffff16036105b9576040517f08c379a00000000000000000000000000000000000000000000000000000000081526004016105b090611e50565b60405180910390fd5b8073ffffffffffffffffffffffffffffffffffffffff166105d8610cf8565b73ffffffffffffffffffffffffffffffffffffffff161480610607575061060681610601610cf8565b610b8e565b5b610646576040517f08c379a000000000000000000000000000000000000000000000000000000000815260040161063d90611ee2565b60405180910390fd5b6106508383610d00565b505050565b60006006600081548092919061066a90611f31565b919050555061067b32600654610db9565b600654905090565b61069461068e610cf8565b82610dd7565b6106d3576040517f08c379a00000000000000000000000000000000000000000000000000000000081526004016106ca90611feb565b60405180910390fd5b6106de838383610eb5565b505050565b6106fe83838360405180602001604052806000815250610a85565b505050565b6000806002600084815260200190815260200160002060009054906101000a900473ffffffffffffffffffffffffffffffffffffffff169050600073ffffffffffffffffffffffffffffffffffffffff168173ffffffffffffffffffffffffffffffffffffffff16036107ab576040517f08c379a00000000000000000000000000000000000000000000000000000000081526004016107a29061207d565b60405180910390fd5b80915050919050565b60008073ffffffffffffffffffffffffffffffffffffffff168273ffffffffffffffffffffffffffffffffffffffff1603610824576040517f08c379a000000000000000000000000000000000000000000000000000000000815260040161081b9061210f565b60405180910390fd5b600360008373ffffffffffffffffffffffffffffffffffffffff1673ffffffffffffffffffffffffffffffffffffffff168152602001908152602001600020549050919050565b8173ffffffffffffffffffffffffffffffffffffffff168373ffffffffffffffffffffffffffffffffffffffff16036108d9576040517f08c379a00000000000000000000000000000000000000000000000000000000081526004016108d09061217b565b60405180910390fd5b80600560008573ffffffffffffffffffffffffffffffffffffffff1673ffffffffffffffffffffffffffffffffffffffff16815260200190815260200160002060008473ffffffffffffffffffffffffffffffffffffffff1673ffffffffffffffffffffffffffffffffffffffff16815260200190815260200160002060006101000a81548160ff0219169083151502179055508173ffffffffffffffffffffffffffffffffffffffff168373ffffffffffffffffffffffffffffffffffffffff167f17307eab39ab6107e8899845ad3d59bd9653f200f220920489ca2b5937696c31836040516109ca919061178a565b60405180910390a3505050565b6060600180546109e690611d1b565b80601f0160208091040260200160405190810160405280929190818152602001828054610a1290611d1b565b8015610a5f5780601f10610a3457610100808354040283529160200191610a5f565b820191906000526020600020905b815481529060010190602001808311610a4257829003601f168201915b5050505050905090565b60065481565b610a81610a7a610cf8565b838361086b565b5050565b610a96610a90610cf8565b83610dd7565b610ad5576040517f08c379a0000000000000000000000000000000000000000000000000000000008152600401610acc90611feb565b60405180910390fd5b610ae18484848461111b565b50505050565b6060610af282610c8c565b610b31576040517f08c379a0000000000000000000000000000000000000000000000000000000008152600401610b289061220d565b60405180910390fd5b6000610b3b611177565b90506000815111610b5b5760405180602001604052806000815250610b86565b80610b658461118e565b604051602001610b76929190612269565b6040516020818303038152906040525b915050919050565b6000600560008473ffffffffffffffffffffffffffffffffffffffff1673ffffffffffffffffffffffffffffffffffffffff16815260200190815260200160002060008373ffffffffffffffffffffffffffffffffffffffff1673ffffffffffffffffffffffffffffffffffffffff16815260200190815260200160002060009054906101000a900460ff16905092915050565b60007f01ffc9a7000000000000000000000000000000000000000000000000000000007bffffffffffffffffffffffffffffffffffffffffffffffffffffffff1916827bffffffffffffffffffffffffffffffffffffffffffffffffffffffff1916149050919050565b60008073ffffffffffffffffffffffffffffffffffffffff166002600084815260200190815260200160002060009054906101000a900473ffffffffffffffffffffffffffffffffffffffff1673ffffffffffffffffffffffffffffffffffffffff1614159050919050565b600033905090565b816004600083815260200190815260200160002060006101000a81548173ffffffffffffffffffffffffffffffffffffffff021916908373ffffffffffffffffffffffffffffffffffffffff160217905550808273ffffffffffffffffffffffffffffffffffffffff16610d7383610703565b73ffffffffffffffffffffffffffffffffffffffff167f8c5be1e5ebec7d5bd14f71427d1e84f3dd0314c0f7b2291e5b200ac8c7c3b92560405160405180910390a45050565b610dd38282604051806020016040528060008152506112ee565b5050565b6000610de282610c8c565b610e21576040517f08c379a0000000000000000000000000000000000000000000000000000000008152600401610e18906122ff565b60405180910390fd5b6000610e2c83610703565b90508073ffffffffffffffffffffffffffffffffffffffff168473ffffffffffffffffffffffffffffffffffffffff161480610e6e5750610e6d8185610b8e565b5b80610eac57508373ffffffffffffffffffffffffffffffffffffffff16610e94846104b9565b73ffffffffffffffffffffffffffffffffffffffff16145b91505092915050565b8273ffffffffffffffffffffffffffffffffffffffff16610ed582610703565b73ffffffffffffffffffffffffffffffffffffffff1614610f2b576040517f08c379a0000000000000000000000000000000000000000000000000000000008152600401610f2290612391565b60405180910390fd5b600073ffffffffffffffffffffffffffffffffffffffff168273ffffffffffffffffffffffffffffffffffffffff1603610f9a576040517f08c379a0000000000000000000000000000000000000000000000000000000008152600401610f9190612423565b60405180910390fd5b610fa5838383611349565b610fb0600082610d00565b6001600360008573ffffffffffffffffffffffffffffffffffffffff1673ffffffffffffffffffffffffffffffffffffffff16815260200190815260200160002060008282546110009190612443565b925050819055506001600360008473ffffffffffffffffffffffffffffffffffffffff1673ffffffffffffffffffffffffffffffffffffffff16815260200190815260200160002060008282546110579190612477565b92505081905550816002600083815260200190815260200160002060006101000a81548173ffffffffffffffffffffffffffffffffffffffff021916908373ffffffffffffffffffffffffffffffffffffffff160217905550808273ffffffffffffffffffffffffffffffffffffffff168473ffffffffffffffffffffffffffffffffffffffff167fddf252ad1be2c89b69c2b068fc378daa952ba7f163c4a11628f55a4df523b3ef60405160405180910390a461111683838361134e565b505050565b611126848484610eb5565b61113284848484611353565b611171576040517f08c379a00000000000000000000000000000000000000000000000000000000081526004016111689061253f565b60405180910390fd5b50505050565b606060405180602001604052806000815250905090565b6060600082036111d5576040518060400160405280600181526020017f300000000000000000000000000000000000000000000000000000000000000081525090506112e9565b600082905060005b600082146112075780806111f090611f31565b915050600a82611200919061258e565b91506111dd565b60008167ffffffffffffffff81111561122357611222611afe565b5b6040519080825280601f01601f1916602001820160405280156112555781602001600182028036833780820191505090505b5090505b600085146112e25760018261126e9190612443565b9150600a8561127d91906125bf565b60306112899190612477565b60f81b81838151811061129f5761129e6125f0565b5b60200101907effffffffffffffffffffffffffffffffffffffffffffffffffffffffffffff1916908160001a905350600a856112db919061258e565b9450611259565b8093505050505b919050565b6112f883836114da565b6113056000848484611353565b611344576040517f08c379a000000000000000000000000000000000000000000000000000000000815260040161133b9061253f565b60405180910390fd5b505050565b505050565b505050565b60006113748473ffffffffffffffffffffffffffffffffffffffff166116b3565b156114cd578373ffffffffffffffffffffffffffffffffffffffff1663150b7a0261139d610cf8565b8786866040518563ffffffff1660e01b81526004016113bf9493929190612674565b6020604051808303816000875af19250505080156113fb57506040513d601f19601f820116820180604052508101906113f891906126d5565b60015b61147d573d806000811461142b576040519150601f19603f3d011682016040523d82523d6000602084013e611430565b606091505b506000815103611475576040517f08c379a000000000000000000000000000000000000000000000000000000000815260040161146c9061253f565b60405180910390fd5b805181602001fd5b63150b7a0260e01b7bffffffffffffffffffffffffffffffffffffffffffffffffffffffff1916817bffffffffffffffffffffffffffffffffffffffffffffffffffffffff1916149150506114d2565b600190505b949350505050565b600073ffffffffffffffffffffffffffffffffffffffff168273ffffffffffffffffffffffffffffffffffffffff1603611549576040517f08c379a00000000000000000000000000000000000000000000000000000000081526004016115409061274e565b60405180910390fd5b61155281610c8c565b15611592576040517f08c379a0000000000000000000000000000000000000000000000000000000008152600401611589906127ba565b60405180910390fd5b61159e60008383611349565b6001600360008473ffffffffffffffffffffffffffffffffffffffff1673ffffffffffffffffffffffffffffffffffffffff16815260200190815260200160002060008282546115ee9190612477565b92505081905550816002600083815260200190815260200160002060006101000a81548173ffffffffffffffffffffffffffffffffffffffff021916908373ffffffffffffffffffffffffffffffffffffffff160217905550808273ffffffffffffffffffffffffffffffffffffffff16600073ffffffffffffffffffffffffffffffffffffffff167fddf252ad1be2c89b69c2b068fc378daa952ba7f163c4a11628f55a4df523b3ef60405160405180910390a46116af6000838361134e565b5050565b6000808273ffffffffffffffffffffffffffffffffffffffff163b119050919050565b6000604051905090565b600080fd5b600080fd5b60007fffffffff0000000000000000000000000000000000000000000000000000000082169050919050565b61171f816116ea565b811461172a57600080fd5b50565b60008135905061173c81611716565b92915050565b600060208284031215611758576117576116e0565b5b60006117668482850161172d565b91505092915050565b60008115159050919050565b6117848161176f565b82525050565b600060208201905061179f600083018461177b565b92915050565b600081519050919050565b600082825260208201905092915050565b60005b838110156117df5780820151818401526020810190506117c4565b838111156117ee576000848401525b50505050565b6000601f19601f8301169050919050565b6000611810826117a5565b61181a81856117b0565b935061182a8185602086016117c1565b611833816117f4565b840191505092915050565b600060208201905081810360008301526118588184611805565b905092915050565b6000819050919050565b61187381611860565b811461187e57600080fd5b50565b6000813590506118908161186a565b92915050565b6000602082840312156118ac576118ab6116e0565b5b60006118ba84828501611881565b91505092915050565b600073ffffffffffffffffffffffffffffffffffffffff82169050919050565b60006118ee826118c3565b9050919050565b6118fe816118e3565b82525050565b600060208201905061191960008301846118f5565b92915050565b611928816118e3565b811461193357600080fd5b50565b6000813590506119458161191f565b92915050565b60008060408385031215611962576119616116e0565b5b600061197085828601611936565b925050602061198185828601611881565b9150509250929050565b61199481611860565b82525050565b60006020820190506119af600083018461198b565b92915050565b6000806000606084860312156119ce576119cd6116e0565b5b60006119dc86828701611936565b93505060206119ed86828701611936565b92505060406119fe86828701611881565b9150509250925092565b600060208284031215611a1e57611a1d6116e0565b5b6000611a2c84828501611936565b91505092915050565b611a3e8161176f565b8114611a4957600080fd5b50565b600081359050611a5b81611a35565b92915050565b600080600060608486031215611a7a57611a796116e0565b5b6000611a8886828701611936565b9350506020611a9986828701611936565b9250506040611aaa86828701611a4c565b9150509250925092565b60008060408385031215611acb57611aca6116e0565b5b6000611ad985828601611936565b9250506020611aea85828601611a4c565b9150509250929050565b600080fd5b600080fd5b7f4e487b7100000000000000000000000000000000000000000000000000000000600052604160045260246000fd5b611b36826117f4565b810181811067ffffffffffffffff82111715611b5557611b54611afe565b5b80604052505050565b6000611b686116d6565b9050611b748282611b2d565b919050565b600067ffffffffffffffff821115611b9457611b93611afe565b5b611b9d826117f4565b9050602081019050919050565b82818337600083830152505050565b6000611bcc611bc784611b79565b611b5e565b905082815260208101848484011115611be857611be7611af9565b5b611bf3848285611baa565b509392505050565b600082601f830112611c1057611c0f611af4565b5b8135611c20848260208601611bb9565b91505092915050565b60008060008060808587031215611c4357611c426116e0565b5b6000611c5187828801611936565b9450506020611c6287828801611936565b9350506040611c7387828801611881565b925050606085013567ffffffffffffffff811115611c9457611c936116e5565b5b611ca087828801611bfb565b91505092959194509250565b60008060408385031215611cc357611cc26116e0565b5b6000611cd185828601611936565b9250506020611ce285828601611936565b9150509250929050565b7f4e487b7100000000000000000000000000000000000000000000000000000000600052602260045260246000fd5b60006002820490506001821680611d3357607f821691505b602082108103611d4657611d45611cec565b5b50919050565b7f4552433732313a20617070726f76656420717565727920666f72206e6f6e657860008201527f697374656e7420746f6b656e0000000000000000000000000000000000000000602082015250565b6000611da8602c836117b0565b9150611db382611d4c565b604082019050919050565b60006020820190508181036000830152611dd781611d9b565b9050919050565b7f4552433732313a20617070726f76616c20746f2063757272656e74206f776e6560008201527f7200000000000000000000000000000000000000000000000000000000000000602082015250565b6000611e3a6021836117b0565b9150611e4582611dde565b604082019050919050565b60006020820190508181036000830152611e6981611e2d565b9050919050565b7f4552433732313a20617070726f76652063616c6c6572206973206e6f74206f7760008201527f6e6572206e6f7220617070726f76656420666f7220616c6c0000000000000000602082015250565b6000611ecc6038836117b0565b9150611ed782611e70565b604082019050919050565b60006020820190508181036000830152611efb81611ebf565b9050919050565b7f4e487b7100000000000000000000000000000000000000000000000000000000600052601160045260246000fd5b6000611f3c82611860565b91507fffffffffffffffffffffffffffffffffffffffffffffffffffffffffffffffff8203611f6e57611f6d611f02565b5b600182019050919050565b7f4552433732313a207472616e736665722063616c6c6572206973206e6f74206f60008201527f776e6572206e6f7220617070726f766564000000000000000000000000000000602082015250565b6000611fd56031836117b0565b9150611fe082611f79565b604082019050919050565b6000602082019050818103600083015261200481611fc8565b9050919050565b7f4552433732313a206f776e657220717565727920666f72206e6f6e657869737460008201527f656e7420746f6b656e0000000000000000000000000000000000000000000000602082015250565b60006120676029836117b0565b91506120728261200b565b604082019050919050565b600060208201905081810360008301526120968161205a565b9050919050565b7f4552433732313a2062616c616e636520717565727920666f7220746865207a6560008201527f726f206164647265737300000000000000000000000000000000000000000000602082015250565b60006120f9602a836117b0565b91506121048261209d565b604082019050919050565b60006020820190508181036000830152612128816120ec565b9050919050565b7f4552433732313a20617070726f766520746f2063616c6c657200000000000000600082015250565b60006121656019836117b0565b91506121708261212f565b602082019050919050565b6000602082019050818103600083015261219481612158565b9050919050565b7f4552433732314d657461646174613a2055524920717565727920666f72206e6f60008201527f6e6578697374656e7420746f6b656e0000000000000000000000000000000000602082015250565b60006121f7602f836117b0565b91506122028261219b565b604082019050919050565b60006020820190508181036000830152612226816121ea565b9050919050565b600081905092915050565b6000612243826117a5565b61224d818561222d565b935061225d8185602086016117c1565b80840191505092915050565b60006122758285612238565b91506122818284612238565b91508190509392505050565b7f4552433732313a206f70657261746f7220717565727920666f72206e6f6e657860008201527f697374656e7420746f6b656e0000000000000000000000000000000000000000602082015250565b60006122e9602c836117b0565b91506122f48261228d565b604082019050919050565b60006020820190508181036000830152612318816122dc565b9050919050565b7f4552433732313a207472616e736665722066726f6d20696e636f72726563742060008201527f6f776e6572000000000000000000000000000000000000000000000000000000602082015250565b600061237b6025836117b0565b91506123868261231f565b604082019050919050565b600060208201905081810360008301526123aa8161236e565b9050919050565b7f4552433732313a207472616e7366657220746f20746865207a65726f2061646460008201527f7265737300000000000000000000000000000000000000000000000000000000602082015250565b600061240d6024836117b0565b9150612418826123b1565b604082019050919050565b6000602082019050818103600083015261243c81612400565b9050919050565b600061244e82611860565b915061245983611860565b92508282101561246c5761246b611f02565b5b828203905092915050565b600061248282611860565b915061248d83611860565b9250827fffffffffffffffffffffffffffffffffffffffffffffffffffffffffffffffff038211156124c2576124c1611f02565b5b828201905092915050565b7f4552433732313a207472616e7366657220746f206e6f6e20455243373231526560008201527f63656976657220696d706c656d656e7465720000000000000000000000000000602082015250565b60006125296032836117b0565b9150612534826124cd565b604082019050919050565b600060208201905081810360008301526125588161251c565b9050919050565b7f4e487b7100000000000000000000000000000000000000000000000000000000600052601260045260246000fd5b600061259982611860565b91506125a483611860565b9250826125b4576125b361255f565b5b828204905092915050565b60006125ca82611860565b91506125d583611860565b9250826125e5576125e461255f565b5b828206905092915050565b7f4e487b7100000000000000000000000000000000000000000000000000000000600052603260045260246000fd5b600081519050919050565b600082825260208201905092915050565b60006126468261261f565b612650818561262a565b93506126608185602086016117c1565b612669816117f4565b840191505092915050565b600060808201905061268960008301876118f5565b61269660208301866118f5565b6126a3604083018561198b565b81810360608301526126b5818461263b565b905095945050505050565b6000815190506126cf81611716565b92915050565b6000602082840312156126eb576126ea6116e0565b5b60006126f9848285016126c0565b91505092915050565b7f4552433732313a206d696e7420746f20746865207a65726f2061646472657373600082015250565b60006127386020836117b0565b915061274382612702565b602082019050919050565b600060208201905081810360008301526127678161272b565b9050919050565b7f4552433732313a20746f6b656e20616c7265616479206d696e74656400000000600082015250565b60006127a4601c836117b0565b91506127af8261276e565b602082019050919050565b600060208201905081810360008301526127d381612797565b905091905056fea26469706673582212207db539a6696359cdcb6a22b0c439ca45972f91736829b2769c8cad29789ef38764736f6c634300080d0033",
  "immutableReferences": {},
  "source": "// SPDX-License-Identifier: MIT\npragma solidity ^0.8.13;\n\nimport \"@openzeppelin/contracts/token/ERC721/ERC721.sol\";\n\ncontract NFT is ERC721 {\n\n  uint public tokenCount;\n  constructor() ERC721(\"Ether Cartel\", \"CARTEL\") {}\n\n  // Funtion to mint/create NFT\n  function mint() public returns(uint) {\n    tokenCount++;\n    _safeMint(tx.origin, tokenCount);      // so, msg.sender will become the owner of the NFT\n    return tokenCount;\n  }\n}",
  "sourcePath": "/home/swayam/code/blockchain/ether-cartel-with-truffle/contracts/NFT.sol",
  "compiler": {
    "name": "solc",
    "version": "0.8.13+commit.abaa5c0e.Emscripten.clang"
  },
  "schemaVersion": "3.4.7",
  "updatedAt": "2022-06-12T05:38:48.581Z",
  "networkType": "ethereum",
  "devdoc": {
    "kind": "dev",
    "methods": {
      "_setApprovalForAll(address,address,bool)": {
        "details": "Approve `operator` to operate on all of `owner` tokens Emits a {ApprovalForAll} event."
      },
      "approve(address,uint256)": {
        "details": "See {IERC721-approve}."
      },
      "balanceOf(address)": {
        "details": "See {IERC721-balanceOf}."
      },
      "getApproved(uint256)": {
        "details": "See {IERC721-getApproved}."
      },
      "isApprovedForAll(address,address)": {
        "details": "See {IERC721-isApprovedForAll}."
      },
      "name()": {
        "details": "See {IERC721Metadata-name}."
      },
      "ownerOf(uint256)": {
        "details": "See {IERC721-ownerOf}."
      },
      "safeTransferFrom(address,address,uint256)": {
        "details": "See {IERC721-safeTransferFrom}."
      },
      "safeTransferFrom(address,address,uint256,bytes)": {
        "details": "See {IERC721-safeTransferFrom}."
      },
      "setApprovalForAll(address,bool)": {
        "details": "See {IERC721-setApprovalForAll}."
      },
      "supportsInterface(bytes4)": {
        "details": "See {IERC165-supportsInterface}."
      },
      "symbol()": {
        "details": "See {IERC721Metadata-symbol}."
      },
      "tokenURI(uint256)": {
        "details": "See {IERC721Metadata-tokenURI}."
      },
      "transferFrom(address,address,uint256)": {
        "details": "See {IERC721-transferFrom}."
      }
    },
    "version": 1
  },
  "userdoc": {
    "kind": "user",
    "methods": {},
    "version": 1
  }
}