{
  "contractName": "Showroom",
  "abi": [
    {
      "inputs": [
        {
          "internalType": "contract NFT",
          "name": "_nft",
          "type": "address"
        },
        {
          "internalType": "contract Dealer",
          "name": "_dealer",
          "type": "address"
        }
      ],
      "stateMutability": "nonpayable",
      "type": "constructor"
    },
    {
      "anonymous": false,
      "inputs": [
        {
          "indexed": true,
          "internalType": "address",
          "name": "_from",
          "type": "address"
        },
        {
          "indexed": false,
          "internalType": "uint256",
          "name": "_price",
          "type": "uint256"
        },
        {
          "indexed": true,
          "internalType": "enum CATEGORIES",
          "name": "_category",
          "type": "uint8"
        },
        {
          "indexed": true,
          "internalType": "string",
          "name": "_name",
          "type": "string"
        },
        {
          "indexed": false,
          "internalType": "uint256",
          "name": "_itemId",
          "type": "uint256"
        }
      ],
      "name": "CarListed",
      "type": "event"
    },
    {
      "anonymous": false,
      "inputs": [
        {
          "indexed": true,
          "internalType": "address",
          "name": "_to",
          "type": "address"
        },
        {
          "indexed": false,
          "internalType": "uint256",
          "name": "_itemId",
          "type": "uint256"
        },
        {
          "indexed": false,
          "internalType": "uint256",
          "name": "_tokenId",
          "type": "uint256"
        }
      ],
      "name": "CarSold",
      "type": "event"
    },
    {
      "inputs": [],
      "name": "itemCount",
      "outputs": [
        {
          "internalType": "uint256",
          "name": "",
          "type": "uint256"
        }
      ],
      "stateMutability": "view",
      "type": "function",
      "constant": true
    },
    {
      "inputs": [
        {
          "internalType": "uint256",
          "name": "",
          "type": "uint256"
        }
      ],
      "name": "items",
      "outputs": [
        {
          "internalType": "contract Car",
          "name": "",
          "type": "address"
        }
      ],
      "stateMutability": "view",
      "type": "function",
      "constant": true
    },
    {
      "inputs": [
        {
          "internalType": "uint256",
          "name": "_carCount",
          "type": "uint256"
        },
        {
          "internalType": "uint256",
          "name": "_price",
          "type": "uint256"
        },
        {
          "internalType": "string",
          "name": "_name",
          "type": "string"
        },
        {
          "internalType": "string",
          "name": "_description",
          "type": "string"
        },
        {
          "internalType": "enum CATEGORIES",
          "name": "_category",
          "type": "uint8"
        }
      ],
      "name": "makeItem",
      "outputs": [],
      "stateMutability": "nonpayable",
      "type": "function"
    },
    {
      "inputs": [
        {
          "internalType": "uint256",
          "name": "_itemId",
          "type": "uint256"
        }
      ],
      "name": "purchaseCar",
      "outputs": [],
      "stateMutability": "payable",
      "type": "function",
      "payable": true
    }
  ],
  "bytecode": "0x60806040523480156200001157600080fd5b50604051620026bc380380620026bc83398181016040528101906200003791906200018c565b600160008190555081600360006101000a81548173ffffffffffffffffffffffffffffffffffffffff021916908373ffffffffffffffffffffffffffffffffffffffff16021790555080600460006101000a81548173ffffffffffffffffffffffffffffffffffffffff021916908373ffffffffffffffffffffffffffffffffffffffff1602179055505050620001d3565b600080fd5b600073ffffffffffffffffffffffffffffffffffffffff82169050919050565b6000620000fb82620000ce565b9050919050565b60006200010f82620000ee565b9050919050565b620001218162000102565b81146200012d57600080fd5b50565b600081519050620001418162000116565b92915050565b60006200015482620000ee565b9050919050565b620001668162000147565b81146200017257600080fd5b50565b60008151905062000186816200015b565b92915050565b60008060408385031215620001a657620001a5620000c9565b5b6000620001b68582860162000130565b9250506020620001c98582860162000175565b9150509250929050565b6124d980620001e36000396000f3fe608060405260043610620000445760003560e01c80632c1d786714620000495780636bfb0d011462000077578063bfb231d214620000a7578063e0ba3fe514620000eb575b600080fd5b3480156200005657600080fd5b506200007560048036038101906200006f919062000ea9565b6200010b565b005b3480156200008457600080fd5b506200008f62000614565b6040516200009e919062000f80565b60405180910390f35b348015620000b457600080fd5b50620000d36004803603810190620000cd919062000f9d565b6200061a565b604051620000e291906200105a565b60405180910390f35b62000109600480360381019062000103919062000f9d565b6200064d565b005b60026000540362000153576040517f08c379a00000000000000000000000000000000000000000000000000000000081526004016200014a90620010d8565b60405180910390fd5b6002600081905550600460009054906101000a900473ffffffffffffffffffffffffffffffffffffffff1673ffffffffffffffffffffffffffffffffffffffff16638c59afc66040518163ffffffff1660e01b8152600401602060405180830381865afa158015620001c9573d6000803e3d6000fd5b505050506040513d601f19601f82011682018060405250810190620001ef919062001137565b62000231576040517f08c379a00000000000000000000000000000000000000000000000000000000081526004016200022890620011df565b60405180910390fd5b6000841162000277576040517f08c379a00000000000000000000000000000000000000000000000000000000081526004016200026e9062001251565b60405180910390fd5b600260008154809291906200028c90620012a2565b9190505550600360009054906101000a900473ffffffffffffffffffffffffffffffffffffffff1673ffffffffffffffffffffffffffffffffffffffff16638c4e3f32333060016040518463ffffffff1660e01b8152600401620002f39392919062001325565b600060405180830381600087803b1580156200030e57600080fd5b505af115801562000323573d6000803e3d6000fd5b50505050600083828685336040516200033c9062000cc2565b6200034c95949392919062001489565b604051809103906000f08015801562000369573d6000803e3d6000fd5b50905060005b868110156200052d576000600360009054906101000a900473ffffffffffffffffffffffffffffffffffffffff1673ffffffffffffffffffffffffffffffffffffffff16631249c58b6040518163ffffffff1660e01b81526004016020604051808303816000875af1158015620003ea573d6000803e3d6000fd5b505050506040513d601f19601f820116820180604052508101906200041091906200150b565b9050600360009054906101000a900473ffffffffffffffffffffffffffffffffffffffff1673ffffffffffffffffffffffffffffffffffffffff166323b872dd3330846040518463ffffffff1660e01b815260040162000473939291906200153d565b600060405180830381600087803b1580156200048e57600080fd5b505af1158015620004a3573d6000803e3d6000fd5b505050508273ffffffffffffffffffffffffffffffffffffffff16630ff2d77b826040518263ffffffff1660e01b8152600401620004e2919062000f80565b600060405180830381600087803b158015620004fd57600080fd5b505af115801562000512573d6000803e3d6000fd5b505050505080806200052490620012a2565b9150506200036f565b508060016000600254815260200190815260200160002060006101000a81548173ffffffffffffffffffffffffffffffffffffffff021916908373ffffffffffffffffffffffffffffffffffffffff16021790555083604051620005929190620015bc565b6040518091039020826002811115620005b057620005af620013e4565b5b3373ffffffffffffffffffffffffffffffffffffffff167f675a7a0fb267fcef3883903653e8bec9668ce9e12988c928e92e5b877501fd1988600254604051620005fc929190620015d5565b60405180910390a45060016000819055505050505050565b60025481565b60016020528060005260406000206000915054906101000a900473ffffffffffffffffffffffffffffffffffffffff1681565b60026000540362000695576040517f08c379a00000000000000000000000000000000000000000000000000000000081526004016200068c90620010d8565b60405180910390fd5b6002600081905550600034905060008111620006e8576040517f08c379a0000000000000000000000000000000000000000000000000000000008152600401620006df9062001652565b60405180910390fd5b6002548211158015620006fc575060008214155b6200073e576040517f08c379a00000000000000000000000000000000000000000000000000000000081526004016200073590620016c4565b60405180910390fd5b60006001600084815260200190815260200160002060009054906101000a900473ffffffffffffffffffffffffffffffffffffffff169050818173ffffffffffffffffffffffffffffffffffffffff1663a035b1fe6040518163ffffffff1660e01b8152600401602060405180830381865afa158015620007c3573d6000803e3d6000fd5b505050506040513d601f19601f82011682018060405250810190620007e991906200150b565b146200082c576040517f08c379a000000000000000000000000000000000000000000000000000000000815260040162000823906200175c565b60405180910390fd5b8073ffffffffffffffffffffffffffffffffffffffff1663b47b4d966040518163ffffffff1660e01b8152600401602060405180830381865afa15801562000878573d6000803e3d6000fd5b505050506040513d601f19601f820116820180604052508101906200089e91906200150b565b8173ffffffffffffffffffffffffffffffffffffffff1663297a1f566040518163ffffffff1660e01b8152600401602060405180830381865afa158015620008ea573d6000803e3d6000fd5b505050506040513d601f19601f820116820180604052508101906200091091906200150b565b1162000953576040517f08c379a00000000000000000000000000000000000000000000000000000000081526004016200094a90620017ce565b60405180910390fd5b8073ffffffffffffffffffffffffffffffffffffffff16639de2ee216040518163ffffffff1660e01b8152600401602060405180830381865afa1580156200099f573d6000803e3d6000fd5b505050506040513d601f19601f82011682018060405250810190620009c5919062001821565b73ffffffffffffffffffffffffffffffffffffffff166108fc839081150290604051600060405180830381858888f1935050505015801562000a0b573d6000803e3d6000fd5b508073ffffffffffffffffffffffffffffffffffffffff16634a75b30a6040518163ffffffff1660e01b8152600401600060405180830381600087803b15801562000a5557600080fd5b505af115801562000a6a573d6000803e3d6000fd5b50505050600360009054906101000a900473ffffffffffffffffffffffffffffffffffffffff1673ffffffffffffffffffffffffffffffffffffffff166323b872dd30338473ffffffffffffffffffffffffffffffffffffffff1663dfe6423d8673ffffffffffffffffffffffffffffffffffffffff1663b47b4d966040518163ffffffff1660e01b8152600401602060405180830381865afa15801562000b16573d6000803e3d6000fd5b505050506040513d601f19601f8201168201806040525081019062000b3c91906200150b565b6040518263ffffffff1660e01b815260040162000b5a919062000f80565b602060405180830381865afa15801562000b78573d6000803e3d6000fd5b505050506040513d601f19601f8201168201806040525081019062000b9e91906200150b565b6040518463ffffffff1660e01b815260040162000bbe939291906200153d565b600060405180830381600087803b15801562000bd957600080fd5b505af115801562000bee573d6000803e3d6000fd5b505050503373ffffffffffffffffffffffffffffffffffffffff167f490f15df0653452a485a8c46533e08cee8b7b9880ddb9037c2316d69f9831978848373ffffffffffffffffffffffffffffffffffffffff1663b47b4d966040518163ffffffff1660e01b8152600401602060405180830381865afa15801562000c77573d6000803e3d6000fd5b505050506040513d601f19601f8201168201806040525081019062000c9d91906200150b565b60405162000cad929190620015d5565b60405180910390a25050600160008190555050565b610c50806200185483390190565b6000604051905090565b600080fd5b600080fd5b6000819050919050565b62000cf98162000ce4565b811462000d0557600080fd5b50565b60008135905062000d198162000cee565b92915050565b600080fd5b600080fd5b6000601f19601f8301169050919050565b7f4e487b7100000000000000000000000000000000000000000000000000000000600052604160045260246000fd5b62000d748262000d29565b810181811067ffffffffffffffff8211171562000d965762000d9562000d3a565b5b80604052505050565b600062000dab62000cd0565b905062000db9828262000d69565b919050565b600067ffffffffffffffff82111562000ddc5762000ddb62000d3a565b5b62000de78262000d29565b9050602081019050919050565b82818337600083830152505050565b600062000e1a62000e148462000dbe565b62000d9f565b90508281526020810184848401111562000e395762000e3862000d24565b5b62000e4684828562000df4565b509392505050565b600082601f83011262000e665762000e6562000d1f565b5b813562000e7884826020860162000e03565b91505092915050565b6003811062000e8f57600080fd5b50565b60008135905062000ea38162000e81565b92915050565b600080600080600060a0868803121562000ec85762000ec762000cda565b5b600062000ed88882890162000d08565b955050602062000eeb8882890162000d08565b945050604086013567ffffffffffffffff81111562000f0f5762000f0e62000cdf565b5b62000f1d8882890162000e4e565b935050606086013567ffffffffffffffff81111562000f415762000f4062000cdf565b5b62000f4f8882890162000e4e565b925050608062000f628882890162000e92565b9150509295509295909350565b62000f7a8162000ce4565b82525050565b600060208201905062000f97600083018462000f6f565b92915050565b60006020828403121562000fb65762000fb562000cda565b5b600062000fc68482850162000d08565b91505092915050565b600073ffffffffffffffffffffffffffffffffffffffff82169050919050565b6000819050919050565b60006200101a620010146200100e8462000fcf565b62000fef565b62000fcf565b9050919050565b60006200102e8262000ff9565b9050919050565b6000620010428262001021565b9050919050565b620010548162001035565b82525050565b600060208201905062001071600083018462001049565b92915050565b600082825260208201905092915050565b7f5265656e7472616e637947756172643a207265656e7472616e742063616c6c00600082015250565b6000620010c0601f8362001077565b9150620010cd8262001088565b602082019050919050565b60006020820190508181036000830152620010f381620010b1565b9050919050565b60008115159050919050565b6200111181620010fa565b81146200111d57600080fd5b50565b600081519050620011318162001106565b92915050565b60006020828403121562001150576200114f62000cda565b5b6000620011608482850162001120565b91505092915050565b7f5065726d697373696f6e2044656e6965642c20596f7520617265206e6f74207460008201527f6865206465616c65722100000000000000000000000000000000000000000000602082015250565b6000620011c7602a8362001077565b9150620011d48262001169565b604082019050919050565b60006020820190508181036000830152620011fa81620011b8565b9050919050565b7f5072696365206d7573742062652067726561746572207468616e207a65726f00600082015250565b600062001239601f8362001077565b9150620012468262001201565b602082019050919050565b600060208201905081810360008301526200126c816200122a565b9050919050565b7f4e487b7100000000000000000000000000000000000000000000000000000000600052601160045260246000fd5b6000620012af8262000ce4565b91507fffffffffffffffffffffffffffffffffffffffffffffffffffffffffffffffff8203620012e457620012e362001273565b5b600182019050919050565b6000620012fc8262000fcf565b9050919050565b6200130e81620012ef565b82525050565b6200131f81620010fa565b82525050565b60006060820190506200133c600083018662001303565b6200134b602083018562001303565b6200135a604083018462001314565b949350505050565b600081519050919050565b60005b838110156200138d57808201518184015260208101905062001370565b838111156200139d576000848401525b50505050565b6000620013b08262001362565b620013bc818562001077565b9350620013ce8185602086016200136d565b620013d98162000d29565b840191505092915050565b7f4e487b7100000000000000000000000000000000000000000000000000000000600052602160045260246000fd5b60038110620014275762001426620013e4565b5b50565b60008190506200143a8262001413565b919050565b60006200144c826200142a565b9050919050565b6200145e816200143f565b82525050565b6000620014718262000fcf565b9050919050565b620014838162001464565b82525050565b600060a0820190508181036000830152620014a58188620013a3565b9050620014b6602083018762001453565b620014c5604083018662000f6f565b8181036060830152620014d98185620013a3565b9050620014ea608083018462001478565b9695505050505050565b600081519050620015058162000cee565b92915050565b60006020828403121562001524576200152362000cda565b5b60006200153484828501620014f4565b91505092915050565b600060608201905062001554600083018662001303565b62001563602083018562001303565b62001572604083018462000f6f565b949350505050565b600081905092915050565b6000620015928262001362565b6200159e81856200157a565b9350620015b08185602086016200136d565b80840191505092915050565b6000620015ca828462001585565b915081905092915050565b6000604082019050620015ec600083018562000f6f565b620015fb602083018462000f6f565b9392505050565b7f496e73756666696369656e7420616d6f756e7400000000000000000000000000600082015250565b60006200163a60138362001077565b9150620016478262001602565b602082019050919050565b600060208201905081810360008301526200166d816200162b565b9050919050565b7f496e76616c6964204974656d2049640000000000000000000000000000000000600082015250565b6000620016ac600f8362001077565b9150620016b98262001674565b602082019050919050565b60006020820190508181036000830152620016df816200169d565b9050919050565b7f416d6f756e742073686f756c642062652065786163746c7920657175616c207460008201527f6f2053656c6c696e672050726963650000000000000000000000000000000000602082015250565b600062001744602f8362001077565b91506200175182620016e6565b604082019050919050565b60006020820190508181036000830152620017778162001735565b9050919050565b7f416c6c205069656365732061726520616c726561647920736f6c640000000000600082015250565b6000620017b6601b8362001077565b9150620017c3826200177e565b602082019050919050565b60006020820190508181036000830152620017e981620017a7565b9050919050565b620017fb8162001464565b81146200180757600080fd5b50565b6000815190506200181b81620017f0565b92915050565b6000602082840312156200183a576200183962000cda565b5b60006200184a848285016200180a565b9150509291505056fe60806040523480156200001157600080fd5b5060405162000c5038038062000c50833981810160405281019062000037919062000406565b84600190805190602001906200004f929190620000f1565b5083600260006101000a81548160ff02191690836002811115620000785762000077620004cc565b5b02179055508260058190555080600660006101000a81548173ffffffffffffffffffffffffffffffffffffffff021916908373ffffffffffffffffffffffffffffffffffffffff16021790555060006007819055508160039080519060200190620000e5929190620000f1565b5050505050506200055f565b828054620000ff906200052a565b90600052602060002090601f0160209004810192826200012357600085556200016f565b82601f106200013e57805160ff19168380011785556200016f565b828001600101855582156200016f579182015b828111156200016e57825182559160200191906001019062000151565b5b5090506200017e919062000182565b5090565b5b808211156200019d57600081600090555060010162000183565b5090565b6000604051905090565b600080fd5b600080fd5b600080fd5b600080fd5b6000601f19601f8301169050919050565b7f4e487b7100000000000000000000000000000000000000000000000000000000600052604160045260246000fd5b6200020a82620001bf565b810181811067ffffffffffffffff821117156200022c576200022b620001d0565b5b80604052505050565b600062000241620001a1565b90506200024f8282620001ff565b919050565b600067ffffffffffffffff821115620002725762000271620001d0565b5b6200027d82620001bf565b9050602081019050919050565b60005b83811015620002aa5780820151818401526020810190506200028d565b83811115620002ba576000848401525b50505050565b6000620002d7620002d18462000254565b62000235565b905082815260208101848484011115620002f657620002f5620001ba565b5b620003038482856200028a565b509392505050565b600082601f830112620003235762000322620001b5565b5b815162000335848260208601620002c0565b91505092915050565b600381106200034c57600080fd5b50565b60008151905062000360816200033e565b92915050565b6000819050919050565b6200037b8162000366565b81146200038757600080fd5b50565b6000815190506200039b8162000370565b92915050565b600073ffffffffffffffffffffffffffffffffffffffff82169050919050565b6000620003ce82620003a1565b9050919050565b620003e081620003c1565b8114620003ec57600080fd5b50565b6000815190506200040081620003d5565b92915050565b600080600080600060a08688031215620004255762000424620001ab565b5b600086015167ffffffffffffffff811115620004465762000445620001b0565b5b62000454888289016200030b565b955050602062000467888289016200034f565b94505060406200047a888289016200038a565b935050606086015167ffffffffffffffff8111156200049e576200049d620001b0565b5b620004ac888289016200030b565b9250506080620004bf88828901620003ef565b9150509295509295909350565b7f4e487b7100000000000000000000000000000000000000000000000000000000600052602160045260246000fd5b7f4e487b7100000000000000000000000000000000000000000000000000000000600052602260045260246000fd5b600060028204905060018216806200054357607f821691505b602082108103620005595762000558620004fb565b5b50919050565b6106e1806200056f6000396000f3fe608060405234801561001057600080fd5b506004361061009e5760003560e01c80639de2ee21116100665780639de2ee2114610123578063a035b1fe14610141578063b47b4d961461015f578063dfe6423d1461017d578063ef430aa6146101ad5761009e565b806306fdde03146100a35780630ff2d77b146100c1578063297a1f56146100dd5780634a75b30a146100fb5780637284e41614610105575b600080fd5b6100ab6101cb565b6040516100b89190610432565b60405180910390f35b6100db60048036038101906100d6919061048f565b610259565b005b6100e561028e565b6040516100f291906104cb565b60405180910390f35b610103610294565b005b61010d6102ae565b60405161011a9190610432565b60405180910390f35b61012b61033c565b6040516101389190610527565b60405180910390f35b610149610362565b60405161015691906104cb565b60405180910390f35b610167610368565b60405161017491906104cb565b60405180910390f35b6101976004803603810190610192919061048f565b61036e565b6040516101a491906104cb565b60405180910390f35b6101b5610386565b6040516101c291906105b9565b60405180910390f35b600180546101d890610603565b80601f016020809104026020016040519081016040528092919081815260200182805461020490610603565b80156102515780601f1061022657610100808354040283529160200191610251565b820191906000526020600020905b81548152906001019060200180831161023457829003601f168201915b505050505081565b6004600081548092919061026c90610663565b9190505550806008600060045481526020019081526020016000208190555050565b60045481565b600760008154809291906102a790610663565b9190505550565b600380546102bb90610603565b80601f01602080910402602001604051908101604052809291908181526020018280546102e790610603565b80156103345780601f1061030957610100808354040283529160200191610334565b820191906000526020600020905b81548152906001019060200180831161031757829003601f168201915b505050505081565b600660009054906101000a900473ffffffffffffffffffffffffffffffffffffffff1681565b60055481565b60075481565b60086020528060005260406000206000915090505481565b600260009054906101000a900460ff1681565b600081519050919050565b600082825260208201905092915050565b60005b838110156103d35780820151818401526020810190506103b8565b838111156103e2576000848401525b50505050565b6000601f19601f8301169050919050565b600061040482610399565b61040e81856103a4565b935061041e8185602086016103b5565b610427816103e8565b840191505092915050565b6000602082019050818103600083015261044c81846103f9565b905092915050565b600080fd5b6000819050919050565b61046c81610459565b811461047757600080fd5b50565b60008135905061048981610463565b92915050565b6000602082840312156104a5576104a4610454565b5b60006104b38482850161047a565b91505092915050565b6104c581610459565b82525050565b60006020820190506104e060008301846104bc565b92915050565b600073ffffffffffffffffffffffffffffffffffffffff82169050919050565b6000610511826104e6565b9050919050565b61052181610506565b82525050565b600060208201905061053c6000830184610518565b92915050565b7f4e487b7100000000000000000000000000000000000000000000000000000000600052602160045260246000fd5b6003811061058257610581610542565b5b50565b600081905061059382610571565b919050565b60006105a382610585565b9050919050565b6105b381610598565b82525050565b60006020820190506105ce60008301846105aa565b92915050565b7f4e487b7100000000000000000000000000000000000000000000000000000000600052602260045260246000fd5b6000600282049050600182168061061b57607f821691505b60208210810361062e5761062d6105d4565b5b50919050565b7f4e487b7100000000000000000000000000000000000000000000000000000000600052601160045260246000fd5b600061066e82610459565b91507fffffffffffffffffffffffffffffffffffffffffffffffffffffffffffffffff82036106a05761069f610634565b5b60018201905091905056fea26469706673582212201d30247b912d37a528b7eaa1974d6a3b36cdb3af988992709326ae10773d5c5864736f6c634300080d0033a264697066735822122068e62fc46169f60f5c5fd9bfc5cf43b1c3bc4d3e2c7423ec75b71789fd16c5c864736f6c634300080d0033",
  "immutableReferences": {},
  "source": "// SPDX-License-Identifier: MIT\npragma solidity ^0.8.13;\nimport {Car, CATEGORIES} from \"./Car.sol\";\n\nimport \"@openzeppelin/contracts/security/ReentrancyGuard.sol\";\nimport \"./NFT.sol\";\nimport \"./Dealer.sol\";\n\ncontract Showroom is ReentrancyGuard{\n\n  // Imp: Always Prefer Structs over child classes to avoid extra efforts in fetching data from Blockchain, we are using Car class here here just to practice them, Car struct should be our obvious choice otherwise\n  mapping(uint => Car) public items;\n  uint public itemCount;\n  NFT nft;\n  Dealer dealer;\n\n  // For dynamic types like string, event stores the keccak256 hash of the value in the chain, https://ethereum.stackexchange.com/questions/6840/indexed-event-with-string-not-getting-logged/\n  event CarListed(address indexed _from, uint _price, CATEGORIES indexed _category, string indexed _name, uint _itemId);\n\n  event CarSold(address indexed _to, uint _itemId, uint _tokenId);\n\n  constructor(NFT _nft, Dealer _dealer) {\n    nft = _nft;\n    dealer = _dealer;\n  }\n  \n  function makeItem(uint _carCount, uint _price, string memory _name, string memory _description, CATEGORIES _category) public nonReentrant {\n    require(dealer.isDealer(), \"Permission Denied, You are not the dealer!\");\n    require(_price > 0, \"Price must be greater than zero\");\n    itemCount++;\n\n    nft._setApprovalForAll(msg.sender, address(this), true);\n    // (bool success, ) = address(nft).call(abi.encodeWithSignature(\"_setApprovalForAll(address,address,bool)\", msg.sender, address(this), true));\n    // require(success, \"Not able to Approve!\");\n\n\n    Car car = new Car(_name, _category, _price, _description, payable(msg.sender));\n    for(uint i=0;i<_carCount;i++) {\n      uint tokenId = nft.mint();\n      nft.transferFrom(msg.sender, address(this), tokenId);\n      car.addcarTokenId(tokenId);\n    }\n\n    items[itemCount] = car;\n\n    emit CarListed(msg.sender, _price, _category, _name, itemCount);\n    \n  }\n\n  function purchaseCar(uint _itemId) public payable nonReentrant {\n    uint amount = msg.value;\n    require(amount > 0, \"Insufficient amount\");\n    require(_itemId <= itemCount && _itemId != 0, \"Invalid Item Id\");\n\n    Car car = items[_itemId];\n\n    require(car.price() == amount, \"Amount should be exactly equal to Selling Price\");\n\n    // 1. return error if all the quantities are already sold\n    require(car.carCount() > car.quantitySold(), \"All Pieces are already sold\");\n\n    // 2. Transfer money to Dealer\n    car.dealer().transfer(amount);\n\n    // 3. Increase quantity sold count\n    car.incrementQuantitySold();\n\n    // 4. Transfer NFT ownership\n    nft.transferFrom(address(this), msg.sender, car.carTokenIds(car.quantitySold()));\n\n    emit CarSold(msg.sender, _itemId, car.quantitySold());\n\n  }\n\n\n}",
  "sourcePath": "/home/swayam/code/blockchain/ether-cartel-with-truffle/contracts/Showroom.sol",
  "compiler": {
    "name": "solc",
    "version": "0.8.13+commit.abaa5c0e.Emscripten.clang"
  },
  "schemaVersion": "3.4.7",
  "updatedAt": "2022-06-12T05:38:48.616Z",
  "networkType": "ethereum",
  "devdoc": {
    "kind": "dev",
    "methods": {},
    "version": 1
  },
  "userdoc": {
    "kind": "user",
    "methods": {},
    "version": 1
  }
}